:020000040800F2
:10000000604D00209D0100087D52000893440008C7
:10001000B94F000869100008715E00080000000078
:1000200000000000000000000000000005010008C2
:10003000351700080000000049010008B959000800
:10004000B7010008B7010008B7010008B7010008B0
:10005000B7010008B7010008B7010008B7010008A0
:10006000B7010008B7010008B7010008291100080E
:10007000B701000835110008B7010008B7010008F2
:10008000B7010008B7010008B7010008B701000870
:10009000B7010008B7010008B7010008B701000860
:1000A000B7010008B7010008B7010008B701000850
:1000B000B7010008B7010008615A0008B70100083D
:1000C000B7010008B7010008B7010008B701000830
:1000D000B7010008B7010008B7010008B701000820
:1000E000B7010008B7010008B7010008DFF810D019
:1000F00000F016FD00480047796E0008AFF300805D
:10010000604D0020224B19680868B0E8F00F80F3BA
:100110000988BFF36F8F4FF0000080F311884EF015
:100120000D0E70470000000006480068006880F36C
:10013000088862B661B6BFF34F8FBFF36F8F00DFE1
:1001400000BF00BF08ED00E0EFF30980BFF36F8F41
:100150000F4B1A6820E9F00F106008B54FF05000FF
:1001600080F31188BFF34F8FBFF36F8F0AF0A6FBA8
:100170004FF0000080F31188BDE808401968086856
:10018000B0E8F00F80F30988BFF36F8F704700BFAE
:10019000D4000020EFF30580704700000648804738
:1001A00006480047FEE7FEE7FEE7FEE7FEE7FEE75C
:1001B000FEE7FEE7FEE7FEE75D5A0008ED000008F7
:1001C000202A04DB203A21FA02F00021704721FAAC
:1001D00002F3D040C2F12002914008431946704713
:1001E00040EA01039B0703D009E008C9121F08C0B9
:1001F000042AFAD203E011F8013B00F8013B521E39
:10020000F9D27047D2B201E000F8012B491EFBD2AF
:1002100070470022F6E710B513460A460446194611
:10022000FFF7F0FF204610BD421C10F8011B00290B
:10023000FBD1801A704710B5002200E0521C835C8D
:100240008C5CA34201D1002BF8D1D8B2E1B2401AA4
:1002500010BD30B505460020034600E05B1C93420C
:1002600005D2EC5CC85C201A01D1002CF6D130BD5F
:10027000F0B480EA0102D40F4200B2EB410F02D287
:100280000246084611464A0042D0C30DDDB2C1F312
:10029000C752AD1A202D35DAC1F3160141F4000220
:1002A00004B15242C5F1200602FA06F12A41104477
:1002B000B3EBD05F23D0C4B1012DA0EBC35009DC58
:1002C000F0BC4FF0004202EAC352DBB200F500007E
:1002D00000F06BBB400000F1807000EBC350A0F158
:1002E000807040EAD170490009E0490841EAC071D4
:1002F000A0EBC35000F50000400800EBC350F0BC79
:1003000000F04ABB6142012202EB4101001BF6E70B
:10031000F0BC704781F00041AAE780F00040A7E7F9
:1003200080EA010210B502F00043400022D04A00EA
:100330001FD0010E01EB1261C0F35600C2F356024A
:1003400040F4000042F40002A0FB022000047F39C8
:10035000140400D0401C50EA124001D44000491E51
:10036000C2B20C0604EBD010401C4008802A02D018
:1003700003E0002010BD20F00100002900DA002079
:10038000184310BD30B480EA010202F0004530F09D
:10039000004221F0004013D090B1C30DD40DC2F340
:1003A0001601C0F31600E41A41F4000140F4000203
:1003B0007D34914201D3641C00E04900002C02DA34
:1003C00030BC002070474FF400000023914201D35D
:1003D000891A034340084FEA4101F7D151B19142D4
:1003E00002D14FF0004105E002D24FF0010101E0DF
:1003F0006FF0010103EBC450284430BC00F0CCBACC
:100400002DE9FE4F804681EA0300C00F0C460090A4
:1004100021F0004123F00045B8EB0200A94105D2CC
:100420004046214690461C460B46024623F00040BB
:10043000104347D0270DC7F30A00C3F30A510290B7
:10044000401A019040286BDAC3F3130040F4801B7C
:100450000098924620B10023D2EB030A63EB0B0B0A
:1004600001985946C0F14002504600F074FA064621
:100470000D4650465946019A00F07CFA10EB0800F0
:100480006141002487EA115284EAE7731A4340D09D
:10049000009A62B3019A012A4FEA075215DC001B49
:1004A00061EB02014FF0004202EA0752CDE900423F
:1004B000001C41F5801132462B4600F0B3FA03B020
:1004C000BDE8F08F40462146F9E7001B61EB0201D1
:1004D000001C41F5801300185B412018A2F500179D
:1004E00047EB030140EAD570B6196D4111E06D0884
:1004F0004FEA360645EAC0754FEA0752001B61EB2A
:100500000201001C41F5801149084FEA3000001932
:10051000514132462B4603B0BDE8F04F00F073BAAC
:100520000098012240000023D0EB020263EBE0734D
:10053000009821464FEAE074B8EB000061EB04013B
:10054000E9E783F000435BE781F0004158E72DE9DC
:10055000FE4F81EA030404F0004421F000410094BE
:100560004FF0000B23F0004350EA01045ED052EA42
:1005700003045BD0C3F30A54C1F30A552C44A4F21C
:10058000F3340194A0FB0254C1F3130141F4801130
:10059000C3F3130343F4801301FB024400FB034E37
:1005A000840A970A44EA815447EA8357A4FB076800
:1005B00002958D0A05FB07854FEA932C04FB0C542A
:1005C0002705029D4FEA065847EA1637B5EB08059E
:1005D0006EEB070C870E920E47EA811742EA8312F0
:1005E000A7FB0201B6EB0B0164EB00042B0D43EA01
:1005F0000C335E1844EB1C50DA465146E7FB02010F
:10060000C5F313044FEA0B3343EA14534FEA0432A1
:10061000019C43EA0603A4F10C040294009CCDE97A
:1006200000B400F0FFF903B0BDE8F08F00200146F0
:10063000F9E72DE9F04D81EA030404F0004B21F0C5
:10064000004514464FF0000A23F0004150EA05022D
:1006500020D054EA01021DD0C5F30A570246C5F363
:100660001303C1F31300C1F30A5640F4801543F499
:100670008013A7EB0608101BD64608F2FD3873EB73
:10068000050002D308F1010801E092185B41B8F1BE
:10069000000F03DA00200146BDE8F08D00204FF482
:1006A0008011064684460EE0171B73EB050705D341
:1006B000121B63EB050306434CEA010C49084FEAA1
:1006C000300092185B4150EA0107EDD152EA030075
:1006D00012D082EA040083EA0501084305D0101B0A
:1006E000AB4106D20122002306E000224FF0004376
:1006F00002E06FF0010253101AEB06004CEB0851B8
:1007000010EB0A0041EB0B01BDE8F04D00F07BB9A6
:10071000C10F80EAE0700844CA079623002100F068
:1007200044B996230022114600F03FB90EB5C10F1F
:1007300080EAE0700844CA07002140F233438DE8A4
:100740000E000A460B4600F06DF903B000BD0EB571
:1007500040F2334102910021CDE900110A460B46D7
:1007600000F060F903B000BD00F0004220F000404E
:10077000C10DC0F3160040F400007F2901DA00200B
:100780007047962903DCC1F19601C84001E0963913
:100790008840002AF4D04042704770B5C1F30A5235
:1007A00001F000450024C1F3130140F2FF3341F48E
:1007B00080119A4201DA002070BD40F233439A4220
:1007C000A2F2334203DC5242FFF7FAFC00E0904011
:1007D0002C43F1D0404270BDC1F30A5210B5C1F3B1
:1007E000130140F2FF3341F480119A4201DA0020F4
:1007F00010BD40F233439A42A2F2334203DC52422C
:10080000FFF7DEFC10BD904010BD00F0004230F05C
:1008100000400AD0C10D01F56071C0F3160042EA34
:100820000151C2084007114370470020014670473C
:1008300030B5041E71F1000404DB4FF00044404267
:1008400064EB0101141E73F1000405DB1C464FF03C
:100850000043524263EB04038B4208BF824230BD27
:1008600030B5041E71F1000404DB4FF00044404237
:1008700064EB0101141E73F1000405DB1C464FF00C
:100880000043524263EB0403994208BF904230BDDB
:1008900001F0004330B421F0004150EA010206D0DB
:1008A0000A0DA2F56072C1F31301002A02DC30BC0C
:1008B00000207047440F44EAC104C100E01830BC76
:1008C00000EBC25000F068B830B50B46014600207E
:1008D0002022012409E021FA02F59D4205D303FA02
:1008E00002F5491B04FA02F52844151EA2F1010283
:1008F000F1DC30BD2DE9F05F0546002092469B46B5
:1009000088460646814640241BE028464146474625
:100910002246FFF755FC53465A46C01A914110D360
:1009200011461846224600F016F82D1A67EB01080A
:100930004F4622460120002100F00DF817EB000978
:100940004E41201EA4F10104DFDC484631462A4610
:100950004346BDE8F09F202A04DB203A00FA02F16A
:10096000002070479140C2F1200320FA03F319439D
:1009700090407047202A06DBCB17203A41FA02F05C
:1009800043EAE07306E041FA02F3D040C2F12002EC
:1009900091400843194670470029A8BF7047401C82
:1009A000490008BF20F00100704710B4B0FA80FC85
:1009B00000FA0CF050EA010404BF10BC704749B1C2
:1009C000CCF1200421FA04F411FA0CF118BF012132
:1009D00021430843A3EB0C01CB1D4FEA00614FEA12
:1009E000102042BF002010BC704700EBC3501044E1
:1009F0000029A4BF10BC7047401C490008BF20F06C
:100A0000010010BC704710B5141E73F1000408DA21
:100A1000401C41F1000192185B411A4301D120F0C2
:100A2000010010BD2DE9F04D92469B4611B1B1FA7F
:100A300081F202E0B0FA80F220329046FFF78BFF9D
:100A400004460F4640EA0A0041EA0B0153465A4663
:100A5000084313D0114653EA010019D0C8F14002EF
:100A60005046FFF7ADFB05460E46504659464246F6
:100A7000FFF771FF084305D0012004E02046394606
:100A8000BDE8F08D0020054346EAE0762C4337436D
:100A90000A986305E40AA0EB08000022FD0A44EA74
:100AA00047540A3002D500200146E9E70105101934
:100AB0006941DDE9084500196941BDE8F04DA2E74B
:100AC00070B521F0004303430CD0C1F30A55002454
:100AD000D5EB040564EB0403D617AD1AB34102DB72
:100AE0000020014670BD201841EB025170BDC1F3DA
:100AF0000A52C1F3130140F2FF3341F480119A42CC
:100B000002DA00200146704740F233439A42A2F2D3
:100B1000334202DC5242FFF753BBFFF71CBF000019
:100B2000064C074D06E0E06840F0010394E807003A
:100B300098471034AC42F6D3FFF7DCFA50DE0008D9
:100B400070DE000870B58C1810F8015B15F0070313
:100B500001D110F8013B2A1106D110F8012B03E056
:100B600010F8016B01F8016B5B1EF9D12B0705D45E
:100B70000023521E0DD401F8013BFAE710F8013BA7
:100B8000CB1A921C03E013F8015B01F8015B521EC3
:100B9000F9D5A142D8D3002070BD000070B504463D
:100BA00000688168C943C90717D1816821F0010134
:100BB000816002F089F805460AE000BF02F084F87F
:100BC000401B022804D920688068C043C00706D0B3
:100BD00020688068C043C007F0D0002070BDA06AC4
:100BE00040F01000A062E06A40F00100E0620120E5
:100BF00070BD10B50146406A826A12F0500F05D0F0
:100C0000006A026BBDE8104008461047816A41F453
:100C10000071816201688968C1F3424107290CD1E2
:100C2000017B51B9816A21F480718162816AC904B2
:100C300003D4816A41F00101816201F0D7FA10BD4D
:100C400010B5406A816A41F040018162C16A41F099
:100C50000401C16201F0CCFA10BD10B5406A01F088
:100C6000C6FA10BDF8B500260446009600688168F3
:100C7000C943C9072DD0816841F001018160164840
:100C800016490068B0FBF1F000E0401E009000281B
:100C9000FBD102F019F8054616E000BF02F014F887
:100CA000401B022810D920688068C043C0070BD0C1
:100CB000A06A40F01000A062E06A40F00100E0622B
:100CC00084F824600120F8BD20688068C043C00714
:100CD000E4D10020F8BD00003000002040420F00A9
:100CE00010B5029C08600020C1E90504C1E9022397
:100CF00003B19960D06848B1106908611069416119
:100D000011611079401C1071087110BD0961D1602A
:100D100001201161F7E708600020C8600861704792
:100D20001FB51E481E4900228089401C08804A8049
:100D30001C49088048804FF4FA6006F02BF91A4DE0
:100D40000024E0B200F07CFB28B9002302221946FF
:100D500028680AF031F9642006F01CF9641C0F2C95
:100D6000EFD3124E124C134D3088208104F1100045
:100D70000FC88DE80F0094E80F0006F0C7F8E06197
:100D8000B08828802869009095E80F0009F0C8FD18
:100D90002861012006F0FEF8E6E700007403002059
:100DA0006E000020720000201C000020680000205F
:100DB000BC0C0020DC0C0020012000F057F964205E
:100DC00006F0E8F8F8E7000008B500208DF800000C
:100DD00004460E4D05F084FE01F0F8F88DF8000091
:100DE00000B9002468B184420BD0044600231A469F
:100DF0006946286809F0A4FE18B90021286809F09E
:100E00005BFE052006F0C6F8E4E7000020000020A5
:100E100008B50024651E0120294609F007FB0128BA
:100E200003D1A0B20E2101F05FF8641C0F2CF2D3A5
:100E300004F0C4F8114F124C124E00258DF80050EA
:100E40002078012808D0C8226946386809F086FF52
:100E5000012801D08DF800500B48F16904F030FBF7
:100E6000207818B1012806D00228E7D19DF80000AB
:100E700004F074FBE2E704F06BFBDFE720000020E6
:100E800038000020BC0C0020000B002040F6B834D5
:100E9000204606F07FF8FBE71FB5204C1E4821686E
:100EA0000088C8631E4FDFF87C80DFF87C901F4EFF
:100EB0001F4D4FF0000A4FF4005B3878012812D024
:100EC0002168C1F834A000225946284601F0F7FEF7
:100ED00000224FF40041284601F0F1FE4FF47A70F1
:100EE00006F058F8E9E701225946284601F0E7FEE6
:100EF0000122D103284601F0E2FED8F81C00CDE91A
:100F00000290D6E90401CDE9000196E80F0006F051
:100F1000B3FA21684863E1E77200002074030020FF
:100F200000000020BC0C0020080D0020F00C002068
:100F3000000C014008B50446626E002AFCD0012175
:100F4000684690470128F7D19DF80010204607F029
:100F5000DBF9F1E70EB54FF6FF738DE80E000246A0
:100F60001023A121014801F079FF0EBD8402002069
:100F70002DE9FE4F00260F468046410715463446B0
:100F80004FF6FF704FF0080A06D008F00701C1F1D4
:100F90000804AC4202D235E0082D04D80097CDE910
:100FA0000120102322E0814615E03A19CDE9002AFC
:100FB0001023CDF808904246A0212A4802F076F886
:100FC000142005F0E7FF083408F10800761C1FFA2A
:100FD00080F8A4B2F6B2B6EBD50FE6D3291B3A19C6
:100FE00089B2CDE900211023CDF808904246A02116
:100FF0001C4802F05BF80446142005F0CBFF2046A5
:10100000BDE8FE8FCDE90074814602901023424670
:10101000A021144802F04AF8142005F0BBFF08EBA9
:1010200004001FFA80F815E03A19CDE9002A1023D0
:10103000CDF808904246A0210A4802F037F8142063
:1010400005F0A8FF083408F10800761C1FFA80F8A4
:10105000A4B2F6B2281BC11700EB5170B6EBE00F3B
:10106000E2DBBBE784020020FEE7000000B589B0A8
:10107000012001F01DFD00210E4801F08FFA01282A
:1010800015D107AB6A4600210A4801F098FA0028FA
:101090000DD109A0039904F023FF9DF81C100BA0AB
:1010A00004F01EFF9DF81D100CA004F019FF09B0FC
:1010B00000BD00005C0200205278486561646572E2
:1010C0002E52545225640D0A0000000052784461EB
:1010D00074615B305D25640D0A0000005278446144
:1010E00074615B315D25640D0A00000000B58BB0B2
:1010F00000202021CDE90010CDE9021004900590D8
:1011000006900120079008900E2009906946024839
:1011100001F0CCF90BB000BD5C02002000210160A1
:101120004160816070470000014801F0B1BB0000E0
:1011300018020020014801F0ABBB00003003002082
:1011400030B590F840500124AC40C56B6C60046829
:1011500063604368102B036803D099600068C26025
:1011600030BD9A600068C16030BD000038B51D48D0
:1011700000248DF800404FF496726946006809F02B
:10118000EDFD012801D08DF800409DF800101648B3
:10119000491F05291CD2DFE801F0030A11090900E3
:1011A0008168491C8160022900D1846038BD816852
:1011B000491E8160FAD50121816038BD0A480C3092
:1011C0000470022004F0F2FB072004F0C7F938BDD8
:1011D000806820B10128FAD100F008F838BD00F08D
:1011E0008BF838BD200000205000002070B588B07A
:1011F000294808F0FFF9294D294C2A4E2A4926484A
:1012000008F05CFA29A1684604F07AFE6B461222C7
:101210000121214808F0C2F928491F4808F04EFA78
:101220002869FFF7F2FA02460B4625A1684604F04A
:1012300067FE6B4620220521174808F0AFF9E069E8
:10124000FFF7E3FA02460B4620A1684604F058FE79
:101250006B462A220521104808F0A0F922881FA118
:10126000684604F04DFE6B46342205210A4808F01A
:1012700095F9D6E902231CA1684604F041FE6B46AD
:101280003E220521044808F089F9034808F0D8F9FE
:101290000028B3D108B070BD54010020DC0C002040
:1012A000BC0C0020080D002051CA0008446173687E
:1012B000626F6172645F4F55540000003CB50008D6
:1012C000205643433A252D342E316600206E746338
:1012D000543A252D342E316600000000206E7463D0
:1012E000423A256400000000207461726765743A18
:1012F000252D342E31660000F0B589B0344808F051
:1013000079F9344C344D354E354F3649304808F074
:10131000D5F935A1684604F0F3FD6B461222012190
:101320002B4808F03BF93449294808F0C7F9D4E9BB
:10133000002332A1684604F0E3FD6B46202205211C
:10134000234808F02BF9D4E902232FA1684604F0C2
:10135000D7FD6B462A2205211D4808F01FF9D4E964
:1013600004232CA1684604F0CBFD6B4634220521F2
:10137000174808F013F9E869FFF747FA02460B46E9
:1013800027A1684604F0BCFD6B462022322110489C
:1013900008F004F9D6E90A2324A1684604F0B0FD58
:1013A0006B462A2232210A4808F0F8F87A8822A1EE
:1013B000684604F0A5FD6B4634223221044808F04B
:1013C000EDF8034808F03CF900289ED109B0F0BDC3
:1013D00054010020F00C0020BC0C0020080D00205F
:1013E0006E00002051CA000844617368626F617228
:1013F000645F5049440000003CB50008204B703A3F
:10140000252D342E31660000204B693A252D342ECF
:1014100031660000204B643A252D342E31660000E1
:101420006E7463543A252D342E3166007069643A27
:10143000252E31660000000070776D3A25640000AB
:101440002DE9FC415E4C5F4D5F4E604F0F2876D218
:10145000DFE800F00815212C37424C57616B76828B
:101460008E9AA600012269464FF4B070FFF772FD14
:10147000002864D156499DF8000008709EE00222C1
:10148000694640F26110FFF765FD002857D1BDF8AD
:101490000000208092E00422694640F26310FFF7CA
:1014A00059FD00284BD10098606087E0042269460E
:1014B00040F26710FFF74EFD002878D10098E060F9
:1014C0007CE00422694640F26B10FFF743FD0028E0
:1014D0006DD10098206171E00422694640F26F10DE
:1014E000FFF738FD58BB0098606167E0022269464B
:1014F00040F27310FFF72EFD08BBBDF800006880B6
:101500005CE00422694640F27510FFF723FDB0B994
:101510000098686052E00422694640F27910FFF7B3
:1015200019FD60B90098A86048E00422694640F2BD
:101530007D10FFF70FFD10B90098E8603EE036E03F
:101540000822694640F28110FFF704FD78BBDDE90F
:101550000001C6E9000131E00822694640F2891025
:10156000FFF7F8FC18BBDDE90001C6E9020125E040
:101570000822694640F29110FFF7ECFCB8B9DDE9AA
:101580000001C6E9040119E00822694640F29910F9
:10159000FFF7E0FC58B9DDE90001C7E902010DE001
:1015A0000822694640F2A110FFF7D4FC10B10120D7
:1015B000BDE8FC81DDE90001C7E904010020F7E78F
:1015C000BC0C0020DC0C0020F00C0020080D0020DA
:1015D000000000201CB5524A152859D010DC514992
:1015E000072838D005DCF0B1012825D0032876D1B2
:1015F0002AE00B2836D00F283BD013286FD13FE0CC
:101600004949292862D006DC192848D01D284DD028
:10161000212864D151E0312862D04449392868D06A
:1016200041287BD16EE042480122694600788DF85E
:1016300000004FF4B0706DE00888ADF800000222A1
:10164000694640F2611065E04868009004226946EE
:1016500040F263105EE0C86800900422694640F2E0
:10166000671057E0086900900422694640F26B1049
:1016700050E0486900900422694640F26F1049E04A
:101680005088ADF800000222694640F2731041E034
:10169000506800900422694640F275103AE0906864
:1016A00000900422694640F2791033E0D06800903F
:1016B0000422694640F27D102CE0D1E90001CDE919
:1016C00000010822694640F2811023E0D1E90201BD
:1016D000CDE900010822694640F289101AE01DE0B8
:1016E000D1E90401CDE900010822694640F29110D8
:1016F00010E0D1E90201CDE900010822694640F27B
:10170000991007E0D1E90401CDE9000108226946FA
:1017100040F2A110FFF72CFC002800D001201CBDD6
:10172000DC0C0020BC0C0020F00C0020080D002078
:1017300000000020704700002DE9F0438BB05248B4
:1017400000248DF82440642209A9006809F006FBF2
:10175000012801D08DF824409DF824004B4D401FF6
:10176000052837D2DFE800F0030E1D252A0028786F
:10177000012804D002280DD1287A401C09E06868AD
:10178000401D0CE02878012807D0022802D1287AD1
:10179000401E28720BB0BDE8F0836868401F686087
:1017A000F8E72C70022004F001F9072003F0D6FEC0
:1017B000F0E728780028EDD02C70EBE7287820B1EE
:1017C000012804D00228F7D0E4E7012000E002203D
:1017D0002870DFE72E4807F00DFF2E4F2E4E4FF0FA
:1017E00003084FF00A0900BF00F0B4F9F869FFF7E9
:1017F0000CF802460B4629A101A804F081FB01ABBD
:101800003C225021224807F0C9FE032334226F21D5
:101810001F48CDF8008007F0CAFC2B7A22A101A84E
:101820006A6804F06DFB01AB3C220A21184807F0FE
:10183000B5FE287890B1012802D0022806D00DE02C
:10184000152333220E21CDF8009004E01523332216
:101850002621CDF800900E4807F047FC5FF0000409
:1018600056F8240004F006FB82B2C4F1770081B27E
:10187000074807F075FD641C6F2CF1D3044807F08E
:10188000DFFE0028B0D185E7200000205C000020AA
:1018900054010020BC0C0020000B002020252D341A
:1018A0002E316620430000007C2533647C253364A0
:1018B0007C0000002DE9F0418CB0734800278DF8C2
:1018C0002C7064220BA9006809F048FA012801D0A5
:1018D0008DF82C709DF82C1001206C4B6C4DDFF8AE
:1018E000B4816D4E6D4C491F052965D2DFE801F0CA
:1018F000032A501A5B00A17861B1012912D16178E5
:1019000081B3012917D002290CD17088642809D22B
:101910000A3025E06078401EC0B26070032801D311
:10192000022060700CB0BDE8F0812F70FAE700294A
:10193000F8D12870F6E744460022D4E90201FEF708
:101940005FFD22E0A17871B10129EBD1617849B145
:10195000012914D00229E5D170880028E2D00A3884
:101960007080DFE707E06078401CC0B26070032839
:10197000D8D36770D6E729780129D8D1D5E744466E
:101980000022D4E90201FEF7DCFDC4E90201C9E747
:1019900042480C3007702770022004F007F8072037
:1019A00003F0DCFDBEE7A178012903D00029B9D1FD
:1019B000A070B7E7A770B5E7394807F01BFE4746A8
:1019C0007F230A220021364807F06DFC7F23322254
:1019D0000021334807F067FC28230A220021304801
:1019E00007F002FE28230A227F212D4807F0FCFD84
:1019F0002A782CA103A804F083FA03AB19220A2148
:101A0000274807F0CBFDD7E902232AA103A804F059
:101A100077FA03AB23220A21214807F0BFFD728821
:101A200029A103A804F06CFA03AB2D220A211C485B
:101A300007F0B4FDA07890B10A20009060781021E2
:101A400000EB800001EB400267230621144807F0F9
:101A50004CFB134807F0F4FD0028B1D162E7607831
:101A6000782300EB8001490001F119020F31CDE923
:101A7000001300EB80000292142101EB400273215D
:101A8000074807F093FDE4E7200000200000F03F46
:101A900000000020080D00207200002050000020EF
:101AA000540100204F75745F7374617465203A208F
:101AB00025336400546172676574202020203A2029
:101AC00025332E316600000048656172742050573E
:101AD0004D203A2025336400F8B5054C069D267844
:101AE000002E04D1009500F005F801202070F8BD0B
:101AF000500000202DE9FF4F81B000240E98144FB4
:101B000092468B46264625464FFA83F94FFA80F8CF
:101B1000641CE4B273B24A462146F87803F05CF8DC
:101B200086B26BB242462146F87803F055F885B28A
:101B30003346524659460095019800F02DF8019819
:101B400007F09DFDF8788442E2D305B0BDE8F08F40
:101B50003400002070B52D23042276210D4807F0B3
:101B600043FD6F23312208210A4807F09CFB002522
:101B7000002405EB8506361D04F1080081B2B2B2DF
:101B8000044807F0EDFB641D6E2CF5D36D1C092D88
:101B9000EED370BD540100202DE9F843154C814669
:101BA000884660781E4680F0010117464846089D29
:101BB00007F07CFD33463A4641464846009507F01B
:101BC000F6FA6178484607F071FDAD1EA8B20090A4
:101BD00008F10100B61E7F1C81B2B3B2BAB248460A
:101BE00007F083FA607880F001014846BDE8F843C9
:101BF00007F05CBD340000202DE9FF4F83B0834621
:101C000099468A460024109D1868FEF70DFB00EBEC
:101C10004000042707EB4000C6B2604807F064FDAF
:101C20005F495E4807F04AFDD9F80C00DFF874817F
:101C3000C2680C20AA420AD14D4508D088F8080095
:101C4000002188F8091088F80A1088F800102B790C
:101C500099F804108B4204D198F80AC0BCF1000F27
:101C600001D0AA4205D188F80900012188F80A109C
:101C700023E0591A002910DD98F8092001EB4101F1
:101C800002EB810149B288F80910302915DD88F886
:101C90000070302188F809100FE00ED598F809205F
:101CA00001EB410102EB810149B288F809100C29CE
:101CB00003DA88F8007088F80900DAE90312516144
:101CC000DAE903120A61354807F006FA641CE4B247
:101CD00098F80110314807F0E9FC402000220090FC
:101CE000802311462D4807F000FA98F8010080F093
:101CF00001012A4807F0DAFC2A464946204600F04E
:101D000055F800954B4651465846059A00F08AF81A
:101D10000221224807F0CAFC98F80800224A41B282
:101D200098F9090003F0D8FB88F8080098F8020039
:101D3000844203D398F8090088F808002868FEF761
:101D400073FA00EB400107EB410040B2164A71B252
:101D500003F0C2FB064698F80200844207D32868C5
:101D6000FEF762FA00EB400107EB4100C6B20C211E
:101D7000CDE9001798F808003346401E82B20BF1F7
:101D80000101064807F016FB044807F078FC98F8B4
:101D90000200844297D307B0BDE8F08F54010020C1
:101DA000F2BE000834000020980800202DE9F84316
:101DB00080469068402711790079491EB7FBF0F002
:101DC000164C48431646A0713B4602227A2114481D
:101DD00007F00AFC00250AE0B7FBF0F06843801C1E
:101DE00082B2062377210E4807F05DFA6D1CB068B9
:101DF0000079A842F0D86079414643B2A07942B256
:101E0000A07802F0E9FEC2B26271042000900823BB
:101E10007621034807F069F9BDE8F8833400002013
:101E2000540100202DE9F0470D46CE68D96881465F
:101E30000898C9682A4C9046814203D1984201D043
:101E40000921E171027926481B7903270178A2EB69
:101E5000030C2879BCF1000F01DD042905D0BCF189
:101E6000000F20D504290FD01DE0011F27708C45DD
:101E700007DDC0F10400E17900EB400001EB8000D8
:101E800010E0E0790C380DE09A1A011F27708A42A1
:101E900006DDE17900EB400001EB8000303801E025
:101EA000E0790C30E07101270EE000BF94F90710D3
:101EB00007FB0810092805D982B24946094833684A
:101EC00007F06CFB76697F1C2879B842EED2494650
:101ED0002B68BDE8F0470922024807F05FBB00000D
:101EE00034000020540100207FB504460D462148EF
:101EF00007F0F2F820491F4807F0E0FB1FA310226B
:101F00002A211C4807F04AFB1E491A4807F0D6FB55
:101F100064204443B4FBF5F422461BA102A803F05D
:101F2000EFFF2046FEF702FC4FF06632184BFEF73B
:101F30000EFBFEF732FC044602AB292264210D4859
:101F400007F02CFB04250A26CDE900650A34A3B26C
:101F500020221021074807F02DFACDE90065502313
:101F600020221021034807F098FA024807F087FB67
:101F70007FBD00005401002051CA000863786A67E1
:101F800000000000F2BE0008253032642525000064
:101F90006666E63F72B6FEE7062813D2DFE800F079
:101FA000120305080B0E08480AE00748283007E02E
:101FB0000548503004E00448783001E00248A03081
:101FC00004F0A8BD08207047380D002010B501208E
:101FD000FFF7E2FF012815D00220FFF7DDFF0128FF
:101FE00012D00320FFF7D8FF01280FD00420FFF7FD
:101FF000D3FF01280CD00520FFF7CEFF012809D020
:10200000002010BD052010BD062010BD072010BD0A
:10201000082010BD092010BDF8B500250446009524
:1020200090F8240001280BD0012084F824002046D9
:10203000FEF7B4FD2046FEF715FE060002D050E084
:102040000220F8BDA06A20F4885040F00200A0628F
:10205000022001F0BDF925490968B1FBF0F040000C
:1020600000E0401E00900028FBD12068816841F00C
:102070000801816000F028FE074608E000F024FE19
:10208000C01B0A2803D920688068000715D420687F
:1020900080680007F2D42068816841F00401816003
:1020A00000F012FE074612E000F00EFEC01B0A28E8
:1020B0000DD920688068400709D5A06A20F0020089
:1020C00040F01000A06284F824500120F8BD206880
:1020D00080684007E8D4A06A20F0020040F00100C8
:1020E000A06284F824503046F8BD00003000002083
:1020F000F8B50024009490F824202546012A12D037
:10210000012280F824204A681F23072A0DD206687E
:10211000776B521E02EB820293409F430B68934001
:102120001F43776319E00220F8BD06680D2A0AD222
:10213000376BD21F02EB820293409F430B689340A0
:102140001F43376309E0F76A0D3A02EB82029340BE
:102150009F430B6893401F43F7620A680723066892
:102160000A2A0AD3F7680A3A02EB420293409F43D5
:102170008B6893401F43F76008E0376902EB420227
:1021800093409F438B6893401F4337610A68102A2E
:1021900001D0112A20D1124B02689A4217D19368BC
:1021A0001B0219D4936843F4000393600968102953
:1021B00012D10C490C4A0968B1FBF2F101EB810123
:1021C000490000E0491E00910029FBD104E0816A2A
:1021D00041F020018162012480F824502046F8BD9E
:1021E000002401403000002040420F00704770473B
:1021F000704700002DE9F0414FF0000704003D4614
:102200007ED0A06A002628B9E66284F824602046C1
:1022100000F07EF82046FEF7C1FCA16AC90600D492
:1022200020B1A06A40F01000A06269E0A16A21F428
:10223000885141F00201A1626268E169237B0A438F
:1022400047EA43010A43A1684FF48077B94209D0B5
:10225000012907D05FF0000194F814C0BCF1010F10
:1022600002D00AE03946F7E7F3B1A36A43F020034E
:10227000A362E36A43F00103E3622368D3F804C076
:102280002CF4694C4CEA010CC3F804C021688B683B
:10229000DFF870C003EA0C0313438B60A168B942F6
:1022A0000BD0012909D00CE0DFF85CC0A3690CEB6E
:1022B00043330B4343F40061DFE7218A0D05A5F5A5
:1022C00080152168CB6A23F470032B43CB6221680D
:1022D00089680E4B1940914208D1E662A16A21F04B
:1022E000020141F00101A162BDE8F081A06A20F085
:1022F000020040F01000A062E06A40F00100E062DD
:102300000120F1E7FDF7E1FF00E0FFFFFE0E1FFFF8
:1023100070B586B000250646009501950295039597
:1023200000681A4988422ED11949886940F4007022
:102330008861886900F400700490886940F00400A6
:1023400088618869694600F0040004901A200090B2
:10235000032001900F4800F0BDFB104C0E48C4E96B
:1023600000058020C4E902504000206180006061C7
:102370002020C4E90605204600F034FB08B1FFF731
:1023800009FE3462666206B070BD000000240140A0
:10239000001002400008014008000240180200201E
:1023A0002DE9F047894604463B4900683B4F0E1D26
:1023B0009046884201D0B84207D1306810F4702F9F
:1023C00003D001252846BDE8F08794F824000128B1
:1023D0000CD0012084F824002046FEF743FC0500C1
:1023E0004FF0000004D084F82400EBE70220EAE775
:1023F000A16A40F60162914341F48071A1622168B3
:10240000B94218D1326812F4702F14D0A16A41F485
:102410008011A1623168490505D5A16A21F40051F6
:1024200041F48051A162A16AC9040AD5E16A21F090
:102430000601E16206E0A26A22F48012A262496803
:10244000E9E7E06284F82400216A15488862216A7D
:102450001448C862216A1448086321686FF00200BA
:1024600008602068816841F480718160216843467A
:102470004A464C31206A00F0E3FA20688168C1F3D3
:1024800042410729816803D041F48011816099E7B6
:1024900041F4A001FAE700000024014000280140B7
:1024A000F30B00085B0C0008410C000810B590F815
:1024B00020300268012B07D0022B05D0416A41F47D
:1024C00080214162012010BDD2F8000240F00100DD
:1024D000C2F80002087D00F01F0301209840D2F8E6
:1024E0001C328343C2F81C32CB69B3B9D2F80C3228
:1024F0008343C2F80C328C894B6864F31F434C69E8
:1025000002EBC404C4F840320C890B6864F31F4327
:102510004C6902EBC404C4F84432CB69012B16D1D8
:10252000D2F80C320343C2F80C320C884B6864F3C7
:102530001F434C6902EBC404C4F840320C89CB68D9
:1025400064F31F434C6902EBC404C4F844328B6942
:10255000002BD2F804320FD053EA0003C2F8043241
:102560000B69002BD2F8143208D00343C2F814329E
:10257000096A012904D008E08343EFE78343F5E7C4
:10258000D2F81C120143C2F81C12D2F8000220F04B
:102590000100C2F80002002010BD00000246002029
:1025A00092F82030012B01D0022B05D1106821B107
:1025B000D0F8100000F003007047C068FAE770B56B
:1025C00090F82040012C05D0022C03D0416A41F440
:1025D000802128E0046809B32469A40720D04FF4BF
:1025E000D874056804EB01142D5915F004059560A5
:1025F00005682D591AD0ED08556005682C5904F06E
:102600000204D4604FF4DA74056804EB01142E5907
:1026100006F00F06082E0CD308250DE0E468DCE771
:10262000416A41F400114162012070BD6D0D1560D9
:10263000E3E72D5905F00F05156105682D59C5F320
:102640000725956105682C59240C54614FF4DC7200
:10265000046802EB0112A4581C700468A458240AF0
:102660005C700468A458240C9C700468A258120E74
:10267000DA704FF4DE72046802EB0112A4581C7188
:102680000468A458240A5C710468A458240C9C7142
:102690000468A258120EDA71006829B1016941F08C
:1026A00020010161002070BDC16841F02001C160BE
:1026B000F8E770B5040003D094F8200010B104E0EE
:1026C000012070BD204600F081F82068016841F0CB
:1026D0000101016000F0F8FA0546052604E000F06B
:1026E000F3FA401B0A2811D820684068C007F6D0CA
:1026F0002068016821F00201016000F0E5FA05465A
:102700000BE000F0E1FA401B0A2806D9606A40F4A9
:102710000030606284F82060D2E72068406880075B
:10272000EFD4207E0128206801683DD021F080018F
:102730000160607E01282068016838D021F04001E6
:102740000160A07E01282068016833D021F02001BB
:102750000160E07E0128206801682ED041F0100160
:102760000160207F01282068016829D021F008013C
:102770000160607F01282068016824D021F00401F5
:102780000160D4E902010843D4E90412114308436B
:102790006168491E08432168C86100206062012009
:1027A00084F82000002070BD41F08001C0E741F0B6
:1027B0004001C5E741F02001CAE721F01001CFE751
:1027C00041F00801D4E741F00401D9E710B586B023
:1027D0000021009101910291039100681349884200
:1027E00022D11348C16941F00071C161C16901F092
:1027F00000710491816941F00401816180690D4C8F
:1028000000F0040004904FF40060009069462046F8
:1028100000F060F9A01400900220019003200390C2
:102820006946204600F056F906B010BD006400402D
:10283000001002400008014070B5044690F82000E6
:10284000012804D0606A40F40020606218E0022091
:1028500084F820002068016821F00101016000F087
:1028600033FA05460EE000BF00F02EFA401B0A289E
:1028700008D9606A40F400306062052084F82000C6
:10288000012070BD20684068C007EDD1606270BD56
:102890002DE9F05FC16B0C6801680B68D0F840C08F
:1028A000042202FA0CF2494DDFF824A1494E4A4FA6
:1028B000DFF828B1DFF828E122422CD05A072AD5C8
:1028C0000A68920603D40A6822F004020A600168CA
:1028D000A94201D1042219E0514501D1402215E05D
:1028E000B14202D14FF4806210E0B94202D14FF4FC
:1028F00080420BE0594502D14FF4802206E0714539
:1029000002D14FF4800201E04FF080622F49083974
:102910004A60C16A3BE04FF0020808FA0CF818EA76
:10292000040F4FF000094FF0010235D05FEA8378C1
:1029300032D50B689B0605D40B6823F00A030B60A5
:1029400080F821200168A94201D1022219E05145F5
:1029500001D1202215E0B14202D14FF4007210E003
:10296000B94202D14FF400520BE0594502D14FF465
:10297000003206E0714502D14FF4001201E04FF041
:102980000072124908394A6080F82090816A002953
:102990001AD0BDE8F05F0847082505FA0CF5254276
:1029A00012D01B0710D50B6823F00E030B6090F8B4
:1029B0004010C36B02FA01F15960826380F8212054
:1029C00080F82090016BE2E7BDE8F09F080002402C
:1029D0001C00024030000240440002405800024007
:1029E0006C00024030B528B308C8134914221944BA
:1029F000B1FBF2F18900C163104981630221417783
:102A00001A6843F6F0718A43D0E900142143D0E9F3
:102A100002452C43214304692143446921438469CD
:102A2000214311431960002141630122427701775C
:102A3000084630BD012030BDF8FFFDBF0000024058
:102A400070B5044690F82000002501280CD0012024
:102A500084F8200094F821600020012E06D084F82C
:102A600020000225284670BD022070BD022684F891
:102A70002160A0632068066826F0010606602046F3
:102A8000FEF75EFBE06A00282068016802D041F092
:102A90000E0106E021F0040101602068016841F0A8
:102AA0000A0101602068016841F001010160D9E775
:102AB00070B5044600F008F90546601C02D00448D1
:102AC0000078044400F000F9401BA042FAD370BD26
:102AD000240000202DE9F84FDFF8B8910024A9F177
:102AE000040B23460F2709F1040AABF1040EC9E0D9
:102AF0000125A5402A40AA427DD1674ED1F804C0E5
:102B0000ACEB0608B44532D014DCBCF1030F3AD06C
:102B100009DCBCF1000F2AD0BCF1010F1CD0BCF1C4
:102B2000020F31D11DE0BCF1110F17D0BCF1120F13
:102B30002AD119E0B8F5881F19D006DCB8F5803F16
:102B400015D0B8F5801F1FD111E0B8F5001F0ED0C9
:102B5000B8F5041F18D10AE0CB6815E0CB681B1D3F
:102B600012E0CB6808330FE0CB680C330CE08B68C5
:102B70002BB1012B4FF0080303D0456104E004237F
:102B800002E0056100E00023FF2A01D8064601E0CB
:102B900000F104064FEA840501D9A5F12005D6F815
:102BA000008007FA05FC28EA0C0803FA05F548EA54
:102BB0000508C6F800804D68ED0062D5374DAE6956
:102BC00046F00106AE61AD6924F0030605F001058B
:102BD0000095334D06EB050CDCF80850A607360FC0
:102BE00007FA06F825EA0805DFF8B880404503D162
:102BF0004FF0000817E044E0DFF8AC80404502D118
:102C00004FF001080FE0DFF8A480404502D14FF0FB
:102C1000020808E0DFF89880404502D14FF0030831
:102C200001E04FF0040808FA06F848EA0508CCF875
:102C300008804D68D9F80060ED024D4601D5164375
:102C400000E096432E604D68DAF80060AD0255460C
:102C500001D5164300E096432E604D68DBF8006016
:102C6000AD035D4601D5164300E096432E604D68E6
:102C7000DEF80060ED03754601D5164300E096438B
:102C80002E60641C0D682A46E5407FF431AFBDE834
:102C9000F88F0000080401400000111000100240ED
:102CA0000000014000080140000C014000100140FC
:102CB000001401408068084000D0012070470AB12C
:102CC000016170470904FBE7014880687047000014
:102CD0002400002070B5040025D094F83D000025A4
:102CE00020B984F83C50204600F078FA242084F87B
:102CF0003D002068016821F0010101602068016841
:102D000041F4004101602068016821F40041016044
:102D100000F0DCFC4D4A6168914201D84C4900E06A
:102D20004C49884201D2012070BD4B492368B0FB59
:102D3000F1F15E6826F03F060E435E6063689342E1
:102D400006D94FF4967359434FF47A73B1FBF3F1FC
:102D50002368491C1E6A26F03F06314319626168E8
:102D6000914210D84900401EB0FBF1F2521CC2F350
:102D70000B02042A01D2042022E0B0FBF1F0401C37
:102D8000C0F30B001CE0A268F2B301EBC10303EB3C
:102D90000116431EB3FBF6F35B1C43F480431B0593
:102DA00049D092B301EBC10202EB0111401EB0FB0E
:102DB000F1F0401CC0F30B0040F4804040F40040B0
:102DC0002168CA694CF6FF739A431043C861D4E97D
:102DD000071001432068026822F0C002114301601D
:102DE000D4E9030101432068826848F2FF339A4323
:102DF00011438160D4E9050108432168CA6822F0C3
:102E0000FF021043C86001E00EE016E02068016890
:102E100041F0010101602564202084F83D00256314
:102E200084F83E50002070BD01EB4106431EB3FB09
:102E3000F6F35B1CB3E70120C2E701EB4101401E42
:102E4000B0FBF1F0401CC0F30B00B7E7A086010017
:102E500080841E0000093D0040420F002DE9FF4F15
:102E600083B00025DDE910799A4693460446DDF8E3
:102E700048800095FFF728FF064694F83D0020287B
:102E80007CD11923012285492046009601F018FCC7
:102E90000028F5D194F83C0001286FD0012084F877
:102EA0003C0020680168C90703D1016841F00101B5
:102EB00001602068016821F400610160222084F82B
:102EC0003D00402084F83E0025646762A4F82A9003
:102ED000608D20857248E062CDE9008653465A46EF
:102EE0002046049901F0EEFA00287DD1208DDFF80C
:102EF000B491202768B1012814D002282068016805
:102F00001ED041F4806101602068416980690090B1
:102F1000B6E02068416981690091016841F400715F
:102F20000160ADE02068016821F48061016072B643
:102F30002068416981690091016841F400710AE0EB
:102F400041F40061016072B62068416981690091B5
:102F5000016821F48061016062B691E0032868D8BD
:102F600001280CD0022843464FF000024946204673
:102F700000960FD001F0A4FBB0BB10E08BE032460E
:102F80004146204601F042FC70BB20680069616A3E
:102F900008706CE001F094FB30BB72B634E020683E
:102FA000016821F48061016072B620680069616A7D
:102FB0000870606A401C6062208D401E2085608D14
:102FC000401E6085384846F2A8110068B0FBF1F059
:102FD000C0EBC00000EB80000090401E009008D0C5
:102FE00020684069C04300E029E040070CD5009804
:102FF000F3E744F8305F6773A573206940F0200061
:10300000206162B625731AE02068016841F40071FE
:10301000016020680069616A0870606A401C606233
:10302000218D491E2185618D491E618562B6216809
:103030001BE032464146204601F0E8FB18B1012072
:1030400007B0BDE8F08F20680069616A0870606AA7
:10305000401C6062218D491E2185618D491E61855C
:1030600021684A69D24352070AD409690170606A2B
:10307000401C6062208D401E2085608D401E608552
:10308000208D00287FF46AAF84F83D7084F83E50AC
:1030900084F83C50D4E70220D2E700000200100080
:1030A0000000FFFF04000100300000202DE9FF4F69
:1030B00083B09A46DDE9119793460446DDF84080D7
:1030C000FFF702FE054694F83D0020287FD1192322
:1030D000012240492046009501F0F2FA002876D1FD
:1030E00094F83C00012872D0012084F83C0020684C
:1030F0000168C90703D1016841F00101016020683E
:10310000016821F400610160212084F83D00402025
:1031100084F83E0000262664C4F82480A4F82A908F
:10312000608D20852C48E062CDE9007553465A46F3
:103130002046049901F044FA70B930E02A46394635
:10314000204601F09BFB58B1206C042804D1206874
:10315000016841F400710160012007B0BDE8F08F03
:10316000606A216800780861606A401C6062218D95
:10317000491E89B22185628D521E6285226853697B
:10318000DB435B070BD469B100781061606A401CB7
:103190006062208D401E2085608D401E6085208DE0
:1031A0000028CBD12A463946204601F05DFA002896
:1031B000CAD154F83D0B016841F400710160202030
:1031C00004F81E09E67766770020C6E7FFE70220CD
:1031D000C3E70000020010000000FFFF10B586B03A
:1031E00000210091019102910391006810498842E9
:1031F0001BD1104CA06940F00800A061A06969468D
:1032000000F0080004904FF44060009012200190FC
:10321000032003900848FFF75DFCE06940F480005C
:10322000E061E06900F48000049006B010BD000089
:103230000058004000100240000C01400248816824
:10324000027811448160704724000020074810B5BF
:10325000016841F010010160032000F0A7F8002090
:1032600000F006F800F050F8002010BD00200240E9
:1032700030B505461F4887B0C16941F00401C161FE
:10328000C06906A900F00400009001A800F0FEF952
:103290000498B0B100F01AFA40001749174AB0FB81
:1032A000F1F11748491E0260416040F2E732002107
:1032B000C0E903218160816100F026FD040003D094
:1032C00015E000F003FAE8E70D4800F05DFD0400AA
:1032D0000DD11E2000F03CF8102D07D20022294607
:1032E0001E2000F043F80748056000E0012407B005
:1032F000204630BD0010024040420F000008004050
:1033000004040020280000200F4808B5816941F01E
:1033100001018161816901F001010091C16941F000
:103320008051C161C069002200F0805000900F21DF
:10333000901E00F01BF80548416821F0E06141F063
:103340000071416008BD0000001002400000014013
:10335000002809DB00F01F02012191404009800094
:1033600000F1E020C0F8001170470000F0B40E4BEF
:103370001B680C46C3F30223C3F10705042D00D9D3
:103380000425191D072901D2002300E0DB1E0126B8
:1033900006FA05F1491E214099409E40761E1640CE
:1033A0003143F0BC02F0C0BD0CED00E0064900F076
:1033B000070208684FF6FF03184040EA0220034A5C
:1033C00010430860704700000CED00E00000FA05B3
:1033D00010B501460020234C012922D0022939D002
:1033E00010291DD161682268D20119D51E48C1F388
:1033F0008342C903805C0AD561681B4AC1F340411E
:10340000921E515C194AB2FBF1F1484301E01849A0
:1034100048436168490203D440000321B0FBF1F046
:1034200010BD226AC2F30121012903D1920701D5FF
:10343000C80310BD022905D1626A920702D549F678
:10344000404010BD0329FCD121688903F9D54FF212
:10345000244010BD00F04AF96168C1F38131491C74
:103460004900DBE70010024014B5000800127A00A2
:1034700000093D002DE9F84305460078354CC007AA
:1034800054D0E0690026C00008D4E06940F08050C4
:10349000E061E069012600F0805000902E4801684C
:1034A000C90512D40168804641F480710160FFF7BC
:1034B0000BFC074605E000BFFFF706FCC01B6428B5
:1034C00023D8D8F80000C005F6D5206A10F4407063
:1034D00021D0A98801F4407181421CD0206A1F4983
:1034E000012220F440700A6000220A602062C007B6
:1034F00011D0FFF7E9FB074641F2883808E000BF2A
:10350000FFF7E2FBC11B414502D90320BDE8F88368
:10351000206A8007F4D5206A696820F44070084367
:1035200020621EB1E06920F08050E06128788007B9
:1035300005D56068A96820F4404008436060287899
:10354000C00605D56068E96820F480000843606023
:103550000020DBE7001002400070004040044242BF
:103560002DE9F0470F46050061D0434E306800F06A
:103570000700B84209D2306820F0070038433060B5
:10358000306800F00700B84251D128683B4C8107F1
:1035900012D5400703D5606840F4E0606060287889
:1035A000000703D5606840F4605060606068A968F7
:1035B00020F0F000084360602878C00728D06868D1
:1035C000012810D02168022810D0890700292EDA9E
:1035D000616821F0030101436160FFF775FB8046DC
:1035E00041F288390DE021688903EFE78901EDE7B1
:1035F000FFF76AFBA0EB0801494502D90320BDE8AB
:10360000F0876068696800F00C00B0EB810FEFD1C3
:10361000306800F00700B8420BD9306820F007008E
:1036200038433060306800F00700B84201D0012014
:10363000E5E72878400705D56068E96820F4E06090
:10364000084360602878000706D56068296920F47F
:10365000605040EAC100606000F058F86168084AB4
:10366000C1F30311515CC840064908600648006870
:10367000FFF7FEFD0020C2E70020024000100240DC
:1036800024B5000830000020280000200F2202602E
:103690000C4A536803F003034360536803F0F003DC
:1036A0008360536803F4E063C36052684FF4E063DF
:1036B00003EAD20202610448006800F007000860D3
:1036C00070470000001002400020024004480549F5
:1036D00000684968044AC1F30221515CC840704740
:1036E000300000200010024034B5000804480549AD
:1036F00000684968044AC1F3C221515CC840704760
:10370000300000200010024034B500080E4A516815
:103710000E4801F00C03042B11D0082B0FD10C48DC
:10372000C1F38343C903C05C0AD55168084AC1F399
:103730004041921E515C054A5043B0FBF1F0704786
:1037400004494843704700000010024000127A000C
:1037500002B5000800093D002DE9F84F040070D0C3
:103760002078C04DC00749D06868C0F381000128A7
:1037700007D06868C0F38100022809D16868C003D7
:1037800006D52868800339D560680028E7D035E081
:103790006068B0F5803F0BD010B1B0F5A02F11D00C
:1037A000286820F480302860286820F4802002E017
:1037B000286840F480302860606890B1FFF784FA90
:1037C00006460AE0286840F480202860F0E700BF41
:1037D000FFF77AFA801B642873D828688003F7D52E
:1037E0000CE0FFF771FA064605E000BFFFF76CFA40
:1037F000801B6428F0D828688003F7D420789A4E7C
:1038000080074FF001094FF0000839D5686810F0C3
:103810000C0F07D06868C0F38100022809D16868DE
:10382000C00306D42868800714D52069012808D170
:1038300010E02069B0B1C6F80090FFF745FA0746DE
:1038400005E00AE1FFF740FAC01B0228C4D8286847
:103850008007F7D52868616920F0F80040EAC100C8
:1038600028600DE0C6F80080FFF72EFA074604E056
:10387000FFF72AFAC01B022823D828688007F7D44C
:10388000207800072CD57948A169D9B1C0F80090FB
:10389000FFF71AFA074604E0FFF716FAC01B0228E2
:1038A0000FD8686A8007F7D571484FF4FA5100685D
:1038B000B0FBF1F0009000BF0098411E0091FAD2D9
:1038C0000EE080E0C0F80080FFF7FEF9074604E054
:1038D000FFF7FAF9C01B022875D8686A8007F7D489
:1038E0002078400760D5E8690027C00008D4E8695F
:1038F00040F08050E861E869012700F080500090B6
:103900005C480168C90513D40168834641F480719D
:103910000160FFF7D9F9824606E000BFFFF7D4F94E
:10392000A0EB0A0064284ED8DBF80000C005F5D5EE
:10393000E06801280AD008B1052813D0286A20F0D1
:1039400001002862286A20F0040002E0286A40F0A2
:1039500001002862E06841F2883B98B1FFF7B4F9B2
:1039600082460BE0286A40F004002862EEE700BFC0
:10397000FFF7AAF9A0EB0A0159455AD8286A80072F
:10398000F6D50CE0FFF7A0F9824605E0FFF79CF9B9
:10399000A0EB0A0159454CD8286A8007F6D41FB11C
:1039A000E86920F08050E861E06988B36968C1F394
:1039B0008101022944D00228C6F8608004D0FFF7B4
:1039C00083F9044638E034E0FFF77EF9074604E067
:1039D000FFF77AF9C01B02282BD828688001F7D49A
:1039E000206AB0F5803F05D16868A16820F40030F6
:1039F00008436860D4E908010843696821F4741138
:103A000008436860C6F86090FFF75EF9044606E078
:103A100025E000BFFFF758F9001B022809D82868E5
:103A20008001F7D51BE000BFFFF74EF9001B02280D
:103A300002D90320BDE8F88F28688001F4D40EE095
:103A40000128F7D06868226A00F48031914204D1DD
:103A5000616A00F47010884201D00120EAE700207A
:103A6000E8E70000001002400000424280044242A9
:103A70003000002000700040704770B5040009D08D
:103A8000606A002540B125616561A56294F8510026
:103A900040B10CE0012070BD6068B0F5827FF4D0C9
:103AA000E561F2E784F85050204600F03FF802202C
:103AB00084F851002068016821F040010160A0886D
:103AC000218900F4827001F404410843A18901F4C2
:103AD00000610843217C01F002010843217D01F0CF
:103AE00001010843218B01F400710843217F01F09B
:103AF0003801084394F8201001F080010843218D1B
:103B000001F40051084321680860A069042101EA1A
:103B10001040216848602068C16921F40061C161DA
:103B20006565012084F85100002070BD70B586B035
:103B300000250646009501950295039500681D49EC
:103B4000884235D11C49886940F480508861886971
:103B500000F480500490886940F00800886188690A
:103B6000694600F00800049028200090022001908F
:103B7000032003901148FEF7ADFF1148416841F062
:103B8000E06141F0010141600F4C0E4820601020BF
:103B9000C4E901058020C4E903056561A5612046EB
:103BA000E561FEF71FFF08B1FEF7F4F9B464666241
:103BB00006B070BD0030014000100240000C014012
:103BC00000000140300002403003002070B5044680
:103BD00090F850000026012809D0012084F85000F8
:103BE00094F851000025012803D002264AE0022063
:103BF00070BD89B182B1032084F8510065652163ED
:103C0000A286E286A56365642564A587E587A0682A
:103C1000B0F5004F02D00BE0012633E020680168C8
:103C200021F0400101602068016841F48041016099
:103C3000A16C1648C862A16C15488862A16C154831
:103C40000863A06C4563E38E2268216B0C32A06C84
:103C5000FEF7F6FE20B1606D40F010006065DBE716
:103C600020680168490603D4016841F04001016001
:103C70002068416841F0200141602068416841F0BE
:103C80000201416084F85050304670BD77560008FC
:103C900081560008555600087047704770477047B6
:103CA00070B590F83C20012A26D0012480F83C40D1
:103CB000022280F83D2003685A689D6822F0700651
:103CC0000A6832435A600D4B02689A4208D0B2F13A
:103CD000804F05D00A4B9A4202D00A4B9A4204D137
:103CE000496825F080031943916080F83D40002128
:103CF00080F83C10084670BD022070BD002C0140C9
:103D0000000400400008004010B5040003D094F8FF
:103D10003D0010B107E0012010BD002084F83C00F8
:103D2000204600F01FF8022084F83D00211D206885
:103D300001F0EAFE012084F8460084F83E0084F891
:103D40003F0084F8400084F8410084F8420084F881
:103D5000430084F8440084F8450084F83D000020C6
:103D600010BD000008B50068B0F1804F08D10548CB
:103D7000C16941F00101C161C06900F0010000901A
:103D800008BD00000010024090F83D10012901D04C
:103D900001207047022180F83D100168CA6842F096
:103DA0000102CA6000680B49884208D0B0F1804F18
:103DB00005D00949884202D00849884204D1816867
:103DC00001F00701062903D0016841F001010160FB
:103DD00000207047002C0140000400400008004013
:103DE00070B5044690F83C000025012817D0012644
:103DF00084F83C60022084F83D002068826822F04C
:103E0000770222F47F4282600868502838D00DDCA7
:103E100020284FD005DC90B3102811D14AE00220B1
:103E200070BD302846D040280AD13BE060282FD012
:103E300070280DD0B0F5805F03D0B0F5005F12D0D0
:103E4000012584F83D60002084F83C00284670BDC0
:103E5000CB68D1E90121206801F099FE20688168D2
:103E600041F0770109E0CB68D1E90121206801F038
:103E70008EFE2068816841F480418160E1E719E0AD
:103E8000CA684968206801F037FF5021206806E0C1
:103E9000CA684968206801F040FF6021206801F08D
:103EA00080FECEE7CA684968206801F025FF4021FE
:103EB0002068F4E7226801461046F0E7704770B5C5
:103EC0000446006801694FF00005C943890715D40D
:103ED000C168C943890711D4E91E01610120207717
:103EE000206880698007204602D0FFF7E7FF04E0E2
:103EF00000F0BCF8204600F04EF9257720680169F3
:103F0000C943490717D4C168C943490713D46FF09F
:103F100004010161022020772068806910F4407F4D
:103F2000204602D0FFF7CAFF04E000F09FF82046C9
:103F300000F031F9257720680169C943090716D4D3
:103F4000C168C943090712D46FF008010161042058
:103F500020772068C0698007204602D0FFF7AEFFB7
:103F600004E000F083F8204600F015F9257720687A
:103F70000169C943C90617D4C168C943C90613D426
:103F80006FF010010161082020772068C06910F4EB
:103F9000407F204602D0FFF791FF04E000F066F872
:103FA000204600F0F8F8257720680169C943C90761
:103FB00008D1C168C943C90704D1891E01612046DF
:103FC00000F04EF920680169C943090609D4C168A7
:103FD000C943090605D46FF0800101612046FFF74F
:103FE0005DFE20680169C943490609D4C168C94317
:103FF000490605D46FF040010161204600F03AF90E
:1040000020680169C94389060BD4C168C943890680
:1040100007D46FF0200101612046BDE87040FFF732
:104020003EBE70BD00B585B00021009101910291A6
:1040300003910068B0F1804F11D10A48816941F0C5
:10404000040181618069694600F004000490052044
:1040500000900220019003900348FEF73BFD05B05D
:1040600000BD00000010024000080140704770B51C
:10407000044690F83C0000260D4601280FD0012090
:1040800084F83C006AB1042A1DD0082A2FD00C2ADB
:104090003FD00126002084F83C00304670BD02204D
:1040A00070BD206801F086FD2068816941F008013B
:1040B00081612068816921F0040181612068816942
:1040C0002A69114311E0206801F09CFD2068816994
:1040D00041F4006181612068816921F4806181611E
:1040E000206881692A6941EA02218161D2E720685A
:1040F00001F0B4FD2068C16941F00801C161206888
:10410000C16921F00401C1612068C1692A691143B4
:1041100011E0206801F0CEFD2068C16941F4006122
:10412000C1612068C16921F48061C1612068C169F1
:104130002A6941EA0221C161ACE710B5040003D04D
:1041400094F83D0010B107E0012010BD002084F874
:104150003C00204600F01EF8022084F83D00211D9E
:10416000206801F0D1FC012084F8460084F83E006C
:1041700084F83F0084F8400084F8410084F842004D
:1041800084F8430084F8440084F8450084F83D0036
:10419000002010BD7047704730B50025044602224C
:1041A00049B1042912D008293ED094F841000128D1
:1041B00045D0012030BD94F83E000128F9D184F8A3
:1041C0003E202068C26842F0020209E094F83F00F5
:1041D0000128EED184F83F202068C26842F0040232
:1041E000C2600122206801F0C5FC1A49206888429B
:1041F00003D1426C42F4004242642068884208D0F5
:10420000B0F1804F05D01449884202D0134988424A
:1042100004D1816801F00701062903D0016841F04B
:1042200001010160284630BD94F840000128C0D14A
:1042300084F840202068C26842F00802D0E784F881
:1042400041200C2901D00125ECE72068C26842F02A
:104250001002C5E7002C01400004004000080040A7
:1042600000680349884201D1FEF7E8BF70470000AB
:1042700000080040704770B5040004D094F8410075
:10428000002510B106E0012070BD84F840502046A2
:1042900000F024F8242084F841002068C16821F44B
:1042A0000051C160204601F04BFD2068016921F4F6
:1042B000904101612068416921F02A014161206833
:1042C000C16841F40051C1606564202084F8410058
:1042D00084F842006563002070BD000030B585B0F1
:1042E00000240094019402940394006814498842C5
:1042F00024D11448816941F480418161816901F4CC
:1043000080410491816941F00401816180690E4D11
:1043100000F0040004904FF400700090022001901F
:104320000320039069462846FEF7D4FB2815CDE903
:104330000004694628460294FEF7CCFB05B030BD68
:104340000038014000100240000801402DE9F84308
:10435000044690F84200994616460D46202802D0A1
:104360000220BDE8F883ADB1A6B10020606422212F
:1043700084F842102063FEF7A7FCA6858046E685F8
:10438000A0684FF48057B84201D1206920B12E4671
:10439000002526E00120E4E7002622E04346002233
:1043A00020212046CDF8009001F026FD08B1032021
:1043B000D7E726B1A068B8421BD038B108E0206822
:1043C0004068C0F3080025F8020B07E0206980B1BF
:1043D0002068406800F07F0006F8010BE08D401E69
:1043E000E085E08D0028D9D1202084F8420000200B
:1043F000B7E720684068EFE72DE9F843044690F8F6
:1044000041001F4616460D46202802D00220BDE876
:10441000F8837DB176B100206064212084F84100EA
:10442000FEF752FCA6848046E684A068B0F5805F63
:1044300002D003E00120EAE7206910B12E460025F2
:104440000EE000260CE08021204601F0D5FCA0B94A
:10445000AEB116F8010B21684860E08C401EE08484
:10446000E08C43464FF0000200970028EBD14FF05C
:104470004001204601F0C0FC30B10320C7E735F809
:10448000020BC0F30800E6E7202084F8410000207A
:10449000BDE7FEE701684A69D24352050FD46FF4C5
:1044A00080624A61002140F8301F202242738173EC
:1044B000026942F00402026101730120704700208A
:1044C000704700002DE9F84F0446006889460B9DAF
:1044D00001689846174641F48061016020680168D0
:1044E00041F48071016000954FF0011B0022594694
:1044F00020460A9B00F0E4F84FF4007A40B12068AF
:104500000068C00501D5C4F840A00320BDE8F88FBD
:10451000216809F0FE0008612B46284920460A9AC6
:1045200000F016F9F0BB20684169806900902A46C6
:1045300020460A9900F0A2F940B1206C04283AD133
:104540002068016841F40071016034E0FEB2B8F106
:10455000010F09D02168380A08612A4620460A99C5
:1045600000F08CF90028E8D1206806612A46204630
:104570000A9900F083F90028DFD12068016841F42E
:104580008071016000950022594620460A9B00F088
:1045900097F80028B3D1216809F0FF0040F001002E
:1045A000086100E007E02B46044920460A9A00F023
:1045B000CFF80028AAD00120A8E7000002000100DF
:1045C0002DE9F843044600680D46DDE908970168C7
:1045D0009846164641F4807101604B4600224FF028
:1045E00001112046009700F06BF848B12068006880
:1045F000C00502D54FF4007020640320BDE8F883A5
:10460000216805F0FE0008613B464A4615492046F0
:1046100000F09EF888B920684169806900903A46A8
:104620004946204600F02AF948B1206C042804D1FC
:104630002068016841F4007101600120DEE7F5B2F5
:10464000B8F1010F09D02168300A08613A4649469D
:10465000204600F013F90028E7D12068056100200A
:10466000CCE700000200010070B516460D46044676
:104670001EE02046FFF70EFF08B1012070BD681C48
:1046800016D0FEF721FB801BA84200D885B9206810
:104690004069C04340070BD5002044F8300F20216B
:1046A0006173A073216941F0200121612073E4E767
:1046B00020684069C0434007DBD4002070BD000083
:1046C0002DE9F047984617460D460446C1F30746C4
:1046D000DDF820902AE000BFB8F1FF3F26D0FEF7BA
:1046E000F3FAA0EB0901414502D8B8F1000F1DD142
:1046F0002068012E16D0806925EA00000004000C15
:1047000012D00020B84211D1002044F8300F2021EF
:104710006173A073216941F02001216120730120A0
:10472000BDE8F0874069E7E70120EBE72068012E4C
:104730000AD0806925EA00000004000C06D00020A1
:10474000B842C9D00020EBE74069F3E70120F7E762
:104750002DE9F047984616460D4604464FF00009ED
:104760004FF0200AC1F3074723E020684069C043A7
:10477000400515D42068016841F40071016021688A
:104780006FF480604861C4F8309084F83DA084F8EC
:104790003E90216C41F00401216484F83C9021E0BA
:1047A000701C06D0FEF790FAA0EB0800B04203D8C8
:1047B00016B1012F1FD021E02068012F15D080698C
:1047C00025EA00000004000C18D000BF44F8309F18
:1047D00084F80DA084F80E90216941F02001216138
:1047E00084F80C900120BDE8F087406925EA0000BC
:1047F0000004000CEAD12068406901E0206880696B
:1048000025EA00000004000CAFD1ECE72DE9F041EF
:10481000002590460E460446202728E04069C04304
:10482000C0060CD454F8301B6FF01000486144F8F7
:1048300010596777A577206A2062257714E0FEF784
:1048400043FAA0EB0800B04200D886B9206840695E
:10485000C04340060BD544F8305F6773A5732069E9
:1048600040F02000206125730120BDE8F081206820
:104870004169C9434906D1D40020F6E770B5164610
:104880000D4604461EE02046FFF704FE08B1012055
:1048900070BD681C16D0FEF717FA801BA84200D81E
:1048A00085B920684069C04300060BD5002044F854
:1048B000300F20216173A073216941F02001216133
:1048C0002073E4E720684069C0430006DBD4002081
:1048D00070BD000030B58BB0244800248DF8244012
:1048E000642209A9006806F039FA012801D08DF880
:1048F00024409DF824001E4D1E4A1F4B401F0528D2
:104900001CD2DFE800F00308100E0E00D5E9040108
:10491000FBF776FD03E0D5E90401FBF712FEC5E9DC
:1049200004010BB030BD154804700C38047002202F
:1049300001F03CF8072000F011FEF2E7162000908D
:1049400046230F2212210E48FDF7C6F8D5E90423AD
:104950000CA101A801F0D4FA1E2201AB11460848AF
:1049600004F01CFE064804F08AFEDAE7200000206E
:10497000F00C00209A9999999999B93F5C00002010
:1049800054010020204B643A252D342E316600005E
:1049900070477047704770477047000030B58BB064
:1049A000234800258DF82450642209A9006806F0E8
:1049B000D5F9012801D08DF824509DF824001D4C14
:1049C0001D4A1E4B401F05281AD2DFE800F00308DD
:1049D000100E0E00D4E90201FBF712FD03E0D4E94A
:1049E0000201FBF7AEFDC4E902010BB030BD144873
:1049F0000570022000F0DAFF072000F0AFFDF4E7B9
:104A00001620009046230F2212210E48FDF764F86D
:104A1000D4E902230CA101A801F072FA1E2201AB15
:104A20001146084804F0BAFD064804F028FEDCE709
:104A300020000020F00C00209A9999999999B93F8B
:104A40005000002054010020204B693A252D342EBF
:104A50003166000030B58BB0234800258DF8245016
:104A6000642209A9006806F079F9012801D08DF8BF
:104A700024509DF824001D4C1D4A1E4B401F052844
:104A80001AD2DFE800F00308100E0E00D4E900018E
:104A9000FBF7B6FC03E0D4E90001FBF752FDC4E9E3
:104AA00000010BB030BD14480570022000F07EFFFD
:104AB000072000F053FDF4E71620009046230F2254
:104AC00012210E48FDF708F8D4E900230CA101A833
:104AD00001F016FA1E2201AB1146084804F05EFDF3
:104AE000064804F0CCFDDCE720000020F00C00209C
:104AF0009A9999999999B93F500000205401002042
:104B0000204B703A252D342E3166000010B500225E
:104B10002649274801F0BBFF2548002225492830B7
:104B200001F0B5FF224800222349503001F0AFFFC9
:104B30001F4800222149783001F0A9FF1C480022BB
:104B40001F49A03001F0A3FF1E4A0121184801F0BF
:104B5000C1FE17481C4A0121283001F0BBFE144851
:104B60001A4A0121503001F0B5FE1148184A0121BE
:104B7000783001F0AFFE0E48164A0121A03001F056
:104B8000A9FE0B4801F09AFF0948283001F096FF72
:104B90000748503001F092FF0548783001F08EFF51
:104BA0000348BDE81040A03001F088BF1956000846
:104BB000380D002025560008315600083D560008E3
:104BC0004956000891490008934900089549000892
:104BD0009749000899490008D21A4A4392FBF0F01D
:104BE000184440B2704700003EB500211C480091B7
:104BF00001911A4A029102609215826001250573A3
:104C0000017503244FF460220461C2614160FDF725
:104C1000F1FA08B1FDF7BEF905200095CDE9015084
:104C200069460F48FDF764FA08B1FDF7B3F90220B1
:104C3000CDE9004069460A48FDF75AFA08B1FDF788
:104C4000A9F90420CDE9000469460548FDF750FAAA
:104C5000002801D0FDF79EF93EBD00000024014070
:104C6000E80100200F4810B50D49016005214160A1
:104C700000214FF440328160C0E903124FF400126A
:104C80004261017641768176C17601774177FDF701
:104C900010FD002803D0BDE81040FDF77BB910BD22
:104CA000006400405C0200200D4808B5416941F0F5
:104CB000010141614069002200F0010000900521DE
:104CC0000B20FEF753FB0B20FEF742FB00220521D1
:104CD0000D20FEF74BFBBDE808400D20FEF738BB6A
:104CE0000010024010B51C4A01210A2002F0A8F968
:104CF0001A4C194A0021E061FC3A194802F0DAF92D
:104D0000154A2060D83A0021164802F0D3F9124A19
:104D10006060B43A0021144802F0CCF90E4AA06059
:104D2000903A1249124802F0C5F90B4AE0606C3A19
:104D30000021104802F0BEF9074A2061483A0021DC
:104D40000D4802F0B7F9044A6061243A00210B488B
:104D500002F0B0F9A06110BDE8B400080400002022
:104D6000210D0008990E00088D0E0008200E00206D
:104D7000350F0008B90D0008C90D0008110E000814
:104D80002DE9F04385B000252E4800950195029548
:104D90000395816941F020018161816901F0200161
:104DA0000491816941F004018161816901F004018C
:104DB0000491816941F0080181618069DFF8889080
:104DC00000F00800049000224AF2C0014846FDF7B6
:104DD00076FFDFF878804FF40047002239464046DE
:104DE000FDF76DFFE020CDE900050124694602943E
:104DF0004046FDF76FFE03260096CDE90154694653
:104E00004846FDF767FE4FF420408DE83100022050
:104E1000039069464846FDF75DFECDE90074CDE993
:104E2000024669464046FDF755FEC020CDE9000424
:104E3000CDE9024669464846FDF74CFE05B0BDE89F
:104E4000F083000000100240000C01400008014007
:104E50000D4810B50B4901600C49416000214FF429
:104E600080428160C0E9031241618161C1610162D8
:104E7000FDF730FF002803D0BDE81040FDF78AB8E9
:104E800010BD00000058004084020020A0860100F0
:104E9000104810B50E4901604FF482714160002145
:104EA0008160C1604FF400720161C0E905121022F7
:104EB000C0E90721416281620A21C162FEF7DDFD7E
:104EC000002803D0BDE81040FDF764B810BD000015
:104ED00000300140D802002010B58EB000240794A5
:104EE000089409940A940B941C2168460C94FBF7CF
:104EF00090F922484FF08041016043F63F01C0E93C
:104F000001146321C0E903148461FEF7FDFE08B1BA
:104F1000FDF740F84FF48050079007A91748FEF7B7
:104F20005FFF08B1FDF736F81448FFF706F908B13E
:104F3000FDF730F80B940BA910480C94FEF7B0FE67
:104F400008B1FDF727F86020CDE9000402940022A3
:104F500069460A480494FFF78AF808B1FDF71AF881
:104F6000082269460548FFF782F808B1FDF712F8F4
:104F70000248FFF757F80EB010BD00007403002080
:104F80000C4810B50A4901604FF4E131416000213D
:104F900081600C22C160C0E904128161C161FFF728
:104FA0006AF9002803D0BDE81040FCF7F3BF10BD3C
:104FB00000380140BC030020FEE7000008B500F007
:104FC0000DF8054800900346A0F164010C22002072
:104FD000FCF712FE08BD00000809002018B568485B
:104FE000684900F164020024C1E9040201468460BA
:104FF00065A0FBF790FE6748614A0090002302F12C
:10500000640165A0FBF76CFE67485D4A00900023D1
:1050100002F1800165A0FBF763FE594B584A143337
:1050200002F19C0165A00094FBF75AFE6648544AC1
:105030000090002302F1B80164A0FBF751FE504933
:1050400065A01431FBF767FE4D4B66A02833A3F132
:10505000140202F1C0010094FBF742FE484B63A02A
:105060003C33A3F1280202F1DC010094FBF738FE87
:10507000434B60A05033A3F13C0202F1F8010094CD
:10508000FBF72EFE3E4B5DA003F1140202F58A7180
:105090000094FBF725FE3A495BA02831FBF73BFE65
:1050A000374A5B4828320090002302F58E7159A0E0
:1050B000FBF716FE324A594828320090002302F5C9
:1050C0009C7157A0FBF70CFE2D4A574828320090E0
:1050D000002302F5AA7155A0FBF702FE284B47A05A
:1050E000143303F1140202F5B8710094FBF7F8FDD4
:1050F000234950A03C31FBF70EFE214A4F483C3279
:105100000090002302F5BC714DA0FBF7E9FD1C4A9D
:105110004D483C320090002302F5CA714BA0FBF7CA
:10512000DFFD174A4B483C320090002302F5D8714E
:1051300049A0FBF7D5FD124B30A0143303F1280230
:1051400002F5E6710094FBF7CBFD0D4944A0503108
:10515000FBF7E1FD0A4A444850320090002302F573
:10516000EA7142A0FBF7BCFD054B24A0143303F108
:105170003C0202F5F8710094FBF7B2FD18BD000087
:10518000A4080020340000205B4D61696E50616707
:10519000655D000039170008202D4465746563744F
:1051A000696F6E4E54430000B5180008202D446509
:1051B00074656374696F6E4F55540000202D5365FC
:1051C0007474696E670000006D110008202D446141
:1051D0007368626F617264005B53657474696E67B3
:1051E0005D000000202D504944000000202D4E5449
:1051F00043000000202D4F5554000000202D526523
:105200007475726E000000005B5049445D00000040
:10521000554A0008202D4B50000000009D49000811
:10522000202D4B4900000000D5480008202D4B449C
:10523000000000005B4E54435D000000B9520008BE
:10524000202D6E746362000059530008202D6E7487
:10525000637231000D540008202D6E7463723200A9
:105260005B4F55545D0000006D5A0008202D746995
:105270006D655F64656C746100000000FEE700000E
:105280007FB505460A480B4C0088208104F11000C8
:105290000FC88DE80F0094E80F0001F037FE0021E1
:1052A000E061E06945F82100491C6F29F9D37FBD11
:1052B00068000020BC0C002030B58BB01F480025D2
:1052C0008DF82450642209A9006805F047FD0128E3
:1052D00001D08DF824509DF82400194C401F05285A
:1052E00015D2DFE800F003060B09090020880A3018
:1052F00001E020880A3820800BB030BD11480570CD
:10530000022000F053FB072000F028F9F4E71620F4
:10531000009046230F2212210B48FCF7DDFB228868
:105320000AA101A800F0ECFD1E2201AB11460648BF
:1053300004F034F9044804F0A2F9DDE7200000206D
:10534000BC0C00205000002054010020206E74632B
:10535000423A25640000000030B58BB02348002598
:105360008DF82450642209A9006805F0F7FC012893
:1053700001D08DF824509DF824001D4C1D49401F7C
:10538000052817D2DFE800F003070D0B0B0020699A
:10539000FAF76EFF02E02069FAF7BCFF20610BB05C
:1053A00030BD15480570022000F000FB072000F01A
:1053B000D5F8F4E71620009046230F2212210F485B
:1053C000FCF78AFB2069FBF720FA02460B460CA18A
:1053D00001A800F095FD1E2201AB1146074804F01C
:1053E000DDF8064804F04BF9D9E700002000002062
:1053F000BC0C00200000204150000020540100207F
:10540000206E746352313A252E66000030B58BB0A1
:10541000234800258DF82450642209A9006805F06E
:105420009DFC012801D08DF824509DF824001D4CCE
:105430001D49401F052817D2DFE800F003070D0BB8
:105440000B006069FAF714FF02E06069FAF762FF87
:1054500060610BB030BD15480570022000F0A6FA5F
:10546000072000F07BF8F4E71620009046230F2277
:1054700012210F48FCF730FB6069FBF7C6F90246C2
:105480000B460CA101A800F03BFD1E2201AB11460A
:10549000074804F083F8064804F0F1F8D9E7000063
:1054A00020000020BC0C0020000020415000002003
:1054B00054010020206E746352323A252E6600009B
:1054C0005FF06E0200EB820353F8043C40F8223098
:1054D000521EF7D1016070472DE9F0470D46144682
:1054E0004FF07C5ADFF864804FF07A59401BFBF78D
:1054F0000FF90646206031466068FAF7B9FE606031
:1055000007463046A168FAF705FF01464846FAF714
:1055100007FF814639464046FAF702FF0746314603
:105520005046FAF7FDFE3946FAF7A2FE4946FAF769
:105530009FFE07462846FBF7EBF83946FAF798FE38
:10554000FBF712F9C0B2A660BDE8F087CDCCCC3D28
:1055500001488069004700003400002038B52C4C19
:10556000401F05282179E36818D2DFE800F0030D19
:10557000181D3000186900900C2200209968FCF773
:105580003BFBE068006908E0586900900C220020AD
:105590009968FCF731FBE0684069E06038BD02299A
:1055A000FCD1002020712BE0986918B1A061012086
:1055B000207138BD00202071D9680C22C868009085
:1055C0000020FCF719FBE068C068C068E5E789B90E
:1055D00098690028EAD12071D9680C22C868009027
:1055E0000020FCF709FBE068C068C068E06009487B
:1055F000FBF794FD20790228DBD100202071E368BD
:1056000000930C2200209968FCF7F6FA38BD0000E0
:10561000340000209808002002210148FDF74ABB11
:10562000000C014020210148FDF744BB0008014067
:1056300001210148FDF73EBB000C0140402101481B
:10564000FDF738BB0008014080210148FDF732BB5F
:105650000008014010B5406A01684A6822F0030260
:105660004A60416D41F010014165012180F85110FF
:10567000FEF702FA10BD10B5406AFEF70EFB10BD32
:1056800038B50546446AFDF71FFB024628680068E6
:10569000800623D42068416821F020014160206801
:1056A000416821F0020141606421204600F01AF8AF
:1056B00018B1606D40F020006065A068002118B945
:1056C0002068C26880680090E186012084F851005B
:1056D000606D18B12046FEF7CFF938BD2046FEF7C1
:1056E000DBFA38BD38B50B46009204460022802113
:1056F00000F008F8002804D0606D40F020006065DC
:10570000032038BD2DE9F8431E46914688460446DD
:10571000089DFDF7D9FA401B351AFDF7D5FA074663
:1057200025480068C0F3CB30684338E0701C37D0A0
:10573000FDF7CAFAC01BA84203D215B1009860B3A6
:105740002CE02068416821F0E00141606068B0F51C
:10575000827F0BD1A068B0F5004F02D0B0F5806F0A
:1057600004D12068016821F040010160A06AB0F511
:10577000005F09D12068016821F4005101602068B0
:10578000016841F400510160012084F851000020BB
:1057900084F850000320BDE8F8830025401E0090E7
:1057A0002068816838EA010004D000214945BDD154
:1057B0000020F0E70121F9E73000002010B5FBF7E9
:1057C00024F8044AC2E904013120FBF703FF00205A
:1057D00010BD0000F00C002010B5FBF716F8044ACD
:1057E000C2E902012920FBF7F5FE002010BD0000F0
:1057F000F00C002010B5FBF708F8044AC2E90001DC
:105800002120FBF7E7FE002010BD0000F00C002077
:10581000024900B1012008700020704700000020FC
:1058200003480021C0E90611C0E908110846704785
:10583000080D00202DE9FF412848D0E90412CDE9E8
:105840000212D0E90212CDE90012D0E9002324A00F
:1058500000F046FB294CE068FAF7D7FF05460E46F4
:105860006068FAF7D2FFCDE900560B460246218860
:1058700023A000F035FB6069FAF7C7FF05460E4626
:105880002069FAF7C2FFCDE9005602460B4625A073
:1058900000F026FB294CE068FAF7B7FF0746884678
:1058A000A068FAF7B2FF05460E466068FAF7ADFF4A
:1058B0008DE8E0010B460246618821A000F010FB54
:1058C0002A48D0E90412CDE90012D0E9022328A029
:1058D00000F006FB04B00020BDE8F081F00C0020D1
:1058E0006B703A252E3166206B693A252E31662081
:1058F0006B643A252E31660D0A000000BC0C0020B6
:105900006E7463423A2564206E74635432353A25CE
:105910002E3166206E74634D4144433A252E316624
:105920000D0A00006E746352313A252E3166206EE6
:10593000746352323A252E31660D0A00DC0C0020C9
:10594000766164634D4144433A2564207664646122
:105950003A252E316620726573683A252E3166200D
:105960007265736C3A252E31660D0A00080D002011
:105970007461726765743A252E31662074696D65AD
:105980005F64656C74613A252E31660D0A00000073
:1059900010B5FAF73AFF044AC2E90201BDE8104027
:1059A0003920FBF717BE0000080D002001490871DF
:1059B000704700003400002010B5502080F311889B
:1059C000BFF34F8FBFF36F8F05F06EFB18B1044923
:1059D0004FF080500860002080F3118810BD000057
:1059E00004ED00E030B593B028216846FAF711FCC9
:1059F00014210AA8FAF70DFC002501200F95109537
:105A00001195010412958DE8230004904FF4E010E5
:105A1000CDE90810022407946846FDF79DFE08B101
:105A200072B6FEE70AA90F2081E831004FF48060CA
:105A3000CDE90D0502210AA8FDF792FD08B172B665
:105A4000FEE74FF4004011900F940FA8FDF712FDF0
:105A5000002801D072B6FEE713B030BD70470000D9
:105A60000148FEF72CBA00000404002030B58BB0CA
:105A70001F4800258DF82450642209A9006805F00C
:105A80006DF9012801D08DF824509DF82400194C9F
:105A9000401F052814D2DFE800F003060B090900B7
:105AA0006068401C01E06068401E60600BB030BD63
:105AB00025700220FFF77AFF0720FFF74FFDF5E77B
:105AC0001620009046230F2212210B48FCF704F801
:105AD0000AA101A8626800F013FA1E2201AB114668
